{
  "_format": "hh-sol-artifact-1",
  "contractName": "flashSwap",
  "sourceName": "contracts/flashswap.sol",
  "abi": [
    {
      "inputs": [
        {
          "internalType": "address",
          "name": "_tokenBorrow",
          "type": "address"
        },
        {
          "internalType": "uint256",
          "name": "_amount",
          "type": "uint256"
        }
      ],
      "name": "testFlashSwap",
      "outputs": [],
      "stateMutability": "nonpayable",
      "type": "function"
    },
    {
      "inputs": [
        {
          "internalType": "address",
          "name": "_sender",
          "type": "address"
        },
        {
          "internalType": "uint256",
          "name": "_amount0",
          "type": "uint256"
        },
        {
          "internalType": "uint256",
          "name": "_amount1",
          "type": "uint256"
        },
        {
          "internalType": "bytes",
          "name": "_data",
          "type": "bytes"
        }
      ],
      "name": "uniswapV2Call",
      "outputs": [],
      "stateMutability": "nonpayable",
      "type": "function"
    }
  ],
  "bytecode": "0x608060405234801561001057600080fd5b50610d94806100206000396000f3fe608060405234801561001057600080fd5b50600436106100365760003560e01c806310d1e85c1461003b578063293ccb5014610057575b600080fd5b61005560048036038101906100509190610882565b610073565b005b610071600480360381019061006c9190610846565b6103e2565b005b60003373ffffffffffffffffffffffffffffffffffffffff16630dfe16816040518163ffffffff1660e01b815260040160206040518083038186803b1580156100bb57600080fd5b505afa1580156100cf573d6000803e3d6000fd5b505050506040513d601f19601f820116820180604052508101906100f391906107e1565b905060003373ffffffffffffffffffffffffffffffffffffffff1663d21220a76040518163ffffffff1660e01b815260040160206040518083038186803b15801561013d57600080fd5b505afa158015610151573d6000803e3d6000fd5b505050506040513d601f19601f8201168201806040525081019061017591906107e1565b90506000735c69bee701ef814a2b6a3edd4b1652cb9cc5aa6f73ffffffffffffffffffffffffffffffffffffffff1663e6a4390584846040518363ffffffff1660e01b81526004016101c89291906109c8565b60206040518083038186803b1580156101e057600080fd5b505afa1580156101f4573d6000803e3d6000fd5b505050506040513d601f19601f8201168201806040525081019061021891906107e1565b90508073ffffffffffffffffffffffffffffffffffffffff163373ffffffffffffffffffffffffffffffffffffffff1614610288576040517f08c379a000000000000000000000000000000000000000000000000000000000815260040161027f90610a1a565b60405180910390fd5b3073ffffffffffffffffffffffffffffffffffffffff168873ffffffffffffffffffffffffffffffffffffffff16146102f6576040517f08c379a00000000000000000000000000000000000000000000000000000000081526004016102ed90610a3a565b60405180910390fd5b6000808686810190610308919061080a565b91509150600060016103e56003846103209190610b5a565b61032a9190610b29565b6103349190610ad3565b9050600081836103449190610ad3565b90508373ffffffffffffffffffffffffffffffffffffffff1663a9059cbb86836040518363ffffffff1660e01b81526004016103819291906109f1565b602060405180830381600087803b15801561039b57600080fd5b505af11580156103af573d6000803e3d6000fd5b505050506040513d601f19601f820116820180604052508101906103d39190610902565b50505050505050505050505050565b6000735c69bee701ef814a2b6a3edd4b1652cb9cc5aa6f73ffffffffffffffffffffffffffffffffffffffff1663e6a439058473c02aaa39b223fe8d0a0e5c4f27ead9083c756cc26040518363ffffffff1660e01b81526004016104479291906109c8565b60206040518083038186803b15801561045f57600080fd5b505afa158015610473573d6000803e3d6000fd5b505050506040513d601f19601f8201168201806040525081019061049791906107e1565b9050600073ffffffffffffffffffffffffffffffffffffffff168173ffffffffffffffffffffffffffffffffffffffff161415610509576040517f08c379a000000000000000000000000000000000000000000000000000000000815260040161050090610a1a565b60405180910390fd5b60008173ffffffffffffffffffffffffffffffffffffffff16630dfe16816040518163ffffffff1660e01b815260040160206040518083038186803b15801561055157600080fd5b505afa158015610565573d6000803e3d6000fd5b505050506040513d601f19601f8201168201806040525081019061058991906107e1565b905060008273ffffffffffffffffffffffffffffffffffffffff1663d21220a76040518163ffffffff1660e01b815260040160206040518083038186803b1580156105d357600080fd5b505afa1580156105e7573d6000803e3d6000fd5b505050506040513d601f19601f8201168201806040525081019061060b91906107e1565b905060008273ffffffffffffffffffffffffffffffffffffffff168673ffffffffffffffffffffffffffffffffffffffff161461064957600061064b565b845b905060008273ffffffffffffffffffffffffffffffffffffffff168773ffffffffffffffffffffffffffffffffffffffff161461068957600061068b565b855b9050600087876040516020016106a29291906109f1565b60405160208183030381529060405290508573ffffffffffffffffffffffffffffffffffffffff1663022c0d9f848430856040518563ffffffff1660e01b81526004016106f29493929190610a5a565b600060405180830381600087803b15801561070c57600080fd5b505af1158015610720573d6000803e3d6000fd5b505050505050505050505050565b60008135905061073d81610d02565b92915050565b60008151905061075281610d02565b92915050565b60008135905061076781610d19565b92915050565b60008151905061077c81610d30565b92915050565b60008083601f84011261079457600080fd5b8235905067ffffffffffffffff8111156107ad57600080fd5b6020830191508360018202830111156107c557600080fd5b9250929050565b6000813590506107db81610d47565b92915050565b6000602082840312156107f357600080fd5b600061080184828501610743565b91505092915050565b6000806040838503121561081d57600080fd5b600061082b85828601610758565b925050602061083c858286016107cc565b9150509250929050565b6000806040838503121561085957600080fd5b60006108678582860161072e565b9250506020610878858286016107cc565b9150509250929050565b60008060008060006080868803121561089a57600080fd5b60006108a88882890161072e565b95505060206108b9888289016107cc565b94505060406108ca888289016107cc565b935050606086013567ffffffffffffffff8111156108e757600080fd5b6108f388828901610782565b92509250509295509295909350565b60006020828403121561091457600080fd5b60006109228482850161076d565b91505092915050565b61093481610bb4565b82525050565b600061094582610aa6565b61094f8185610ab1565b935061095f818560208601610c0e565b61096881610c9f565b840191505092915050565b6000610980600583610ac2565b915061098b82610cb0565b602082019050919050565b60006109a3600783610ac2565b91506109ae82610cd9565b602082019050919050565b6109c281610c04565b82525050565b60006040820190506109dd600083018561092b565b6109ea602083018461092b565b9392505050565b6000604082019050610a06600083018561092b565b610a1360208301846109b9565b9392505050565b60006020820190508181036000830152610a3381610973565b9050919050565b60006020820190508181036000830152610a5381610996565b9050919050565b6000608082019050610a6f60008301876109b9565b610a7c60208301866109b9565b610a89604083018561092b565b8181036060830152610a9b818461093a565b905095945050505050565b600081519050919050565b600082825260208201905092915050565b600082825260208201905092915050565b6000610ade82610c04565b9150610ae983610c04565b9250827fffffffffffffffffffffffffffffffffffffffffffffffffffffffffffffffff03821115610b1e57610b1d610c41565b5b828201905092915050565b6000610b3482610c04565b9150610b3f83610c04565b925082610b4f57610b4e610c70565b5b828204905092915050565b6000610b6582610c04565b9150610b7083610c04565b9250817fffffffffffffffffffffffffffffffffffffffffffffffffffffffffffffffff0483118215151615610ba957610ba8610c41565b5b828202905092915050565b6000610bbf82610be4565b9050919050565b6000610bd182610be4565b9050919050565b60008115159050919050565b600073ffffffffffffffffffffffffffffffffffffffff82169050919050565b6000819050919050565b60005b83811015610c2c578082015181840152602081019050610c11565b83811115610c3b576000848401525b50505050565b7f4e487b7100000000000000000000000000000000000000000000000000000000600052601160045260246000fd5b7f4e487b7100000000000000000000000000000000000000000000000000000000600052601260045260246000fd5b6000601f19601f8301169050919050565b7f2170616972000000000000000000000000000000000000000000000000000000600082015250565b7f2173656e64657200000000000000000000000000000000000000000000000000600082015250565b610d0b81610bb4565b8114610d1657600080fd5b50565b610d2281610bc6565b8114610d2d57600080fd5b50565b610d3981610bd8565b8114610d4457600080fd5b50565b610d5081610c04565b8114610d5b57600080fd5b5056fea2646970667358221220ede756130e98403620f6db2cefb1245c49731a844e7cdb729fa389c657f0d4b664736f6c63430008010033",
  "linkReferences": {},
  "deployedLinkReferences": {}
}