{
  "_format": "hh-sol-artifact-1",
  "contractName": "TestAaveFlashLoan",
  "sourceName": "contracts/TestAaveFlashLoan.sol",
  "abi": [
    {
      "inputs": [
        {
          "internalType": "contract ILendingPoolAddressesProvider",
          "name": "_addressProvider",
          "type": "address"
        }
      ],
      "stateMutability": "nonpayable",
      "type": "constructor"
    },
    {
      "anonymous": false,
      "inputs": [
        {
          "indexed": false,
          "internalType": "string",
          "name": "message",
          "type": "string"
        },
        {
          "indexed": false,
          "internalType": "uint256",
          "name": "val",
          "type": "uint256"
        }
      ],
      "name": "Log",
      "type": "event"
    },
    {
      "inputs": [],
      "name": "ADDRESSES_PROVIDER",
      "outputs": [
        {
          "internalType": "contract ILendingPoolAddressesProvider",
          "name": "",
          "type": "address"
        }
      ],
      "stateMutability": "view",
      "type": "function"
    },
    {
      "inputs": [],
      "name": "LENDING_POOL",
      "outputs": [
        {
          "internalType": "contract ILendingPool",
          "name": "",
          "type": "address"
        }
      ],
      "stateMutability": "view",
      "type": "function"
    },
    {
      "inputs": [
        {
          "internalType": "address[]",
          "name": "assets",
          "type": "address[]"
        },
        {
          "internalType": "uint256[]",
          "name": "amounts",
          "type": "uint256[]"
        },
        {
          "internalType": "uint256[]",
          "name": "premiums",
          "type": "uint256[]"
        },
        {
          "internalType": "address",
          "name": "initiator",
          "type": "address"
        },
        {
          "internalType": "bytes",
          "name": "params",
          "type": "bytes"
        }
      ],
      "name": "executeOperation",
      "outputs": [
        {
          "internalType": "bool",
          "name": "",
          "type": "bool"
        }
      ],
      "stateMutability": "nonpayable",
      "type": "function"
    },
    {
      "inputs": [
        {
          "internalType": "address",
          "name": "asset",
          "type": "address"
        },
        {
          "internalType": "uint256",
          "name": "amount",
          "type": "uint256"
        }
      ],
      "name": "testFlashLoan",
      "outputs": [],
      "stateMutability": "nonpayable",
      "type": "function"
    }
  ],
  "bytecode": "0x60c06040523480156200001157600080fd5b506040516200140038038062001400833981810160405281019062000037919062000189565b808073ffffffffffffffffffffffffffffffffffffffff1660808173ffffffffffffffffffffffffffffffffffffffff1660601b815250508073ffffffffffffffffffffffffffffffffffffffff16630261bf8b6040518163ffffffff1660e01b815260040160206040518083038186803b158015620000b657600080fd5b505afa158015620000cb573d6000803e3d6000fd5b505050506040513d601f19601f82011682018060405250810190620000f191906200015d565b73ffffffffffffffffffffffffffffffffffffffff1660a08173ffffffffffffffffffffffffffffffffffffffff1660601b81525050505062000231565b6000815190506200014081620001fd565b92915050565b600081519050620001578162000217565b92915050565b6000602082840312156200017057600080fd5b600062000180848285016200012f565b91505092915050565b6000602082840312156200019c57600080fd5b6000620001ac8482850162000146565b91505092915050565b6000620001c282620001dd565b9050919050565b6000620001d682620001b5565b9050919050565b600073ffffffffffffffffffffffffffffffffffffffff82169050919050565b6200020881620001b5565b81146200021457600080fd5b50565b6200022281620001c9565b81146200022e57600080fd5b50565b60805160601c60a05160601c6111966200026a600039600081816102fc015281816103b401526107270152600060db01526111966000f3fe608060405234801561001057600080fd5b506004361061004c5760003560e01c80630542975c14610051578063920f5c841461006f578063b4dcfc771461009f578063d6b348ee146100bd575b600080fd5b6100596100d9565b6040516100669190610d9f565b60405180910390f35b61008960048036038101906100849190610975565b6100fd565b6040516100969190610d84565b60405180910390f35b6100a76103b2565b6040516100b49190610dba565b60405180910390f35b6100d760048036038101906100d29190610939565b6103d6565b005b7f000000000000000000000000000000000000000000000000000000000000000081565b600080600090505b8a8a90508110156103a0577fdd970dd9b5bfe707922155b058a407655cb18288b807e2216442bca8ad83d6b589898381811061016a577f4e487b7100000000000000000000000000000000000000000000000000000000600052603260045260246000fd5b9050602002013560405161017e9190610dd5565b60405180910390a17fdd970dd9b5bfe707922155b058a407655cb18288b807e2216442bca8ad83d6b58787838181106101e0577f4e487b7100000000000000000000000000000000000000000000000000000000600052603260045260246000fd5b905060200201356040516101f49190610e23565b60405180910390a1600061028f88888481811061023a577f4e487b7100000000000000000000000000000000000000000000000000000000600052603260045260246000fd5b905060200201358b8b8581811061027a577f4e487b7100000000000000000000000000000000000000000000000000000000600052603260045260246000fd5b905060200201356107c890919063ffffffff16565b90508b8b838181106102ca577f4e487b7100000000000000000000000000000000000000000000000000000000600052603260045260246000fd5b90506020020160208101906102df9190610910565b73ffffffffffffffffffffffffffffffffffffffff1663095ea7b37f0000000000000000000000000000000000000000000000000000000000000000836040518363ffffffff1660e01b8152600401610339929190610d5b565b602060405180830381600087803b15801561035357600080fd5b505af1158015610367573d6000803e3d6000fd5b505050506040513d601f19601f8201168201806040525081019061038b9190610a5d565b5050808061039890611017565b915050610105565b50600190509998505050505050505050565b7f000000000000000000000000000000000000000000000000000000000000000081565b60008273ffffffffffffffffffffffffffffffffffffffff166370a08231306040518263ffffffff1660e01b81526004016104119190610cb5565b60206040518083038186803b15801561042957600080fd5b505afa15801561043d573d6000803e3d6000fd5b505050506040513d601f19601f820116820180604052508101906104619190610a86565b90508181116104a5576040517f08c379a000000000000000000000000000000000000000000000000000000000815260040161049c90610e03565b60405180910390fd5b60003090506000600167ffffffffffffffff8111156104ed577f4e487b7100000000000000000000000000000000000000000000000000000000600052604160045260246000fd5b60405190808252806020026020018201604052801561051b5781602001602082028036833780820191505090505b5090508481600081518110610559577f4e487b7100000000000000000000000000000000000000000000000000000000600052603260045260246000fd5b602002602001019073ffffffffffffffffffffffffffffffffffffffff16908173ffffffffffffffffffffffffffffffffffffffff16815250506000600167ffffffffffffffff8111156105d6577f4e487b7100000000000000000000000000000000000000000000000000000000600052604160045260246000fd5b6040519080825280602002602001820160405280156106045781602001602082028036833780820191505090505b5090508481600081518110610642577f4e487b7100000000000000000000000000000000000000000000000000000000600052603260045260246000fd5b6020026020010181815250506000600167ffffffffffffffff811115610691577f4e487b7100000000000000000000000000000000000000000000000000000000600052604160045260246000fd5b6040519080825280602002602001820160405280156106bf5781602001602082028036833780820191505090505b5090506000816000815181106106fe577f4e487b7100000000000000000000000000000000000000000000000000000000600052603260045260246000fd5b6020026020010181815250506000309050600060405180602001604052806000815250905060007f000000000000000000000000000000000000000000000000000000000000000073ffffffffffffffffffffffffffffffffffffffff1663ab9c4b5d888888888888886040518863ffffffff1660e01b815260040161078a9796959493929190610cd0565b600060405180830381600087803b1580156107a457600080fd5b505af11580156107b8573d6000803e3d6000fd5b5050505050505050505050505050565b600081836107d69190610ef0565b905092915050565b6000813590506107ed8161111b565b92915050565b60008083601f84011261080557600080fd5b8235905067ffffffffffffffff81111561081e57600080fd5b60208301915083602082028301111561083657600080fd5b9250929050565b60008083601f84011261084f57600080fd5b8235905067ffffffffffffffff81111561086857600080fd5b60208301915083602082028301111561088057600080fd5b9250929050565b60008151905061089681611132565b92915050565b60008083601f8401126108ae57600080fd5b8235905067ffffffffffffffff8111156108c757600080fd5b6020830191508360018202830111156108df57600080fd5b9250929050565b6000813590506108f581611149565b92915050565b60008151905061090a81611149565b92915050565b60006020828403121561092257600080fd5b6000610930848285016107de565b91505092915050565b6000806040838503121561094c57600080fd5b600061095a858286016107de565b925050602061096b858286016108e6565b9150509250929050565b600080600080600080600080600060a08a8c03121561099357600080fd5b60008a013567ffffffffffffffff8111156109ad57600080fd5b6109b98c828d016107f3565b995099505060208a013567ffffffffffffffff8111156109d857600080fd5b6109e48c828d0161083d565b975097505060408a013567ffffffffffffffff811115610a0357600080fd5b610a0f8c828d0161083d565b95509550506060610a228c828d016107de565b93505060808a013567ffffffffffffffff811115610a3f57600080fd5b610a4b8c828d0161089c565b92509250509295985092959850929598565b600060208284031215610a6f57600080fd5b6000610a7d84828501610887565b91505092915050565b600060208284031215610a9857600080fd5b6000610aa6848285016108fb565b91505092915050565b6000610abb8383610adf565b60208301905092915050565b6000610ad38383610c97565b60208301905092915050565b610ae881610f46565b82525050565b610af781610f46565b82525050565b6000610b0882610e71565b610b128185610eac565b9350610b1d83610e51565b8060005b83811015610b4e578151610b358882610aaf565b9750610b4083610e92565b925050600181019050610b21565b5085935050505092915050565b6000610b6682610e7c565b610b708185610ebd565b9350610b7b83610e61565b8060005b83811015610bac578151610b938882610ac7565b9750610b9e83610e9f565b925050600181019050610b7f565b5085935050505092915050565b610bc281610f58565b82525050565b6000610bd382610e87565b610bdd8185610ece565b9350610bed818560208601610fe4565b610bf68161108f565b840191505092915050565b610c0a81610f9c565b82525050565b610c1981610fc0565b82525050565b6000610c2c600883610edf565b9150610c37826110a0565b602082019050919050565b6000610c4f600d83610edf565b9150610c5a826110c9565b602082019050919050565b6000610c72600383610edf565b9150610c7d826110f2565b602082019050919050565b610c9181610f64565b82525050565b610ca081610f92565b82525050565b610caf81610f92565b82525050565b6000602082019050610cca6000830184610aee565b92915050565b600060e082019050610ce5600083018a610aee565b8181036020830152610cf78189610afd565b90508181036040830152610d0b8188610b5b565b90508181036060830152610d1f8187610b5b565b9050610d2e6080830186610aee565b81810360a0830152610d408185610bc8565b9050610d4f60c0830184610c88565b98975050505050505050565b6000604082019050610d706000830185610aee565b610d7d6020830184610ca6565b9392505050565b6000602082019050610d996000830184610bb9565b92915050565b6000602082019050610db46000830184610c01565b92915050565b6000602082019050610dcf6000830184610c10565b92915050565b60006040820190508181036000830152610dee81610c1f565b9050610dfd6020830184610ca6565b92915050565b60006020820190508181036000830152610e1c81610c42565b9050919050565b60006040820190508181036000830152610e3c81610c65565b9050610e4b6020830184610ca6565b92915050565b6000819050602082019050919050565b6000819050602082019050919050565b600081519050919050565b600081519050919050565b600081519050919050565b6000602082019050919050565b6000602082019050919050565b600082825260208201905092915050565b600082825260208201905092915050565b600082825260208201905092915050565b600082825260208201905092915050565b6000610efb82610f92565b9150610f0683610f92565b9250827fffffffffffffffffffffffffffffffffffffffffffffffffffffffffffffffff03821115610f3b57610f3a611060565b5b828201905092915050565b6000610f5182610f72565b9050919050565b60008115159050919050565b600061ffff82169050919050565b600073ffffffffffffffffffffffffffffffffffffffff82169050919050565b6000819050919050565b6000610fa782610fae565b9050919050565b6000610fb982610f72565b9050919050565b6000610fcb82610fd2565b9050919050565b6000610fdd82610f72565b9050919050565b60005b83811015611002578082015181840152602081019050610fe7565b83811115611011576000848401525b50505050565b600061102282610f92565b91507fffffffffffffffffffffffffffffffffffffffffffffffffffffffffffffffff82141561105557611054611060565b5b600182019050919050565b7f4e487b7100000000000000000000000000000000000000000000000000000000600052601160045260246000fd5b6000601f19601f8301169050919050565b7f626f72726f776564000000000000000000000000000000000000000000000000600082015250565b7f62616c203c3d20616d6f756e7400000000000000000000000000000000000000600082015250565b7f6665650000000000000000000000000000000000000000000000000000000000600082015250565b61112481610f46565b811461112f57600080fd5b50565b61113b81610f58565b811461114657600080fd5b50565b61115281610f92565b811461115d57600080fd5b5056fea2646970667358221220b0853121d4d2fe86389fe1410c7be822e99b9e151cca69227865c452cdcdebe064736f6c63430008010033",
  "linkReferences": {},
  "deployedLinkReferences": {}
}