{
  "_format": "hh-sol-artifact-1",
  "contractName": "testSwap",
  "sourceName": "contracts/testSwap.sol",
  "abi": [
    {
      "inputs": [
        {
          "internalType": "address",
          "name": "_tokenIn",
          "type": "address"
        },
        {
          "internalType": "address",
          "name": "_tokenOut",
          "type": "address"
        },
        {
          "internalType": "uint256",
          "name": "_amountIn",
          "type": "uint256"
        },
        {
          "internalType": "address",
          "name": "_to",
          "type": "address"
        },
        {
          "internalType": "uint256",
          "name": "_deadline",
          "type": "uint256"
        }
      ],
      "name": "swap",
      "outputs": [],
      "stateMutability": "nonpayable",
      "type": "function"
    }
  ],
  "bytecode": "0x608060405234801561001057600080fd5b50610ad9806100206000396000f3fe608060405234801561001057600080fd5b506004361061002b5760003560e01c806317d88f4614610030575b600080fd5b61004a600480360381019061004591906105c4565b61004c565b005b8473ffffffffffffffffffffffffffffffffffffffff166323b872dd3330866040518463ffffffff1660e01b815260040161008993929190610748565b602060405180830381600087803b1580156100a357600080fd5b505af11580156100b7573d6000803e3d6000fd5b505050506040513d601f19601f820116820180604052508101906100db919061067c565b508473ffffffffffffffffffffffffffffffffffffffff1663095ea7b3737a250d5630b4cf539739df2c5dacb4c659f2488d856040518363ffffffff1660e01b815260040161012b92919061077f565b602060405180830381600087803b15801561014557600080fd5b505af1158015610159573d6000803e3d6000fd5b505050506040513d601f19601f8201168201806040525081019061017d919061067c565b506060600267ffffffffffffffff8111156101c1577f4e487b7100000000000000000000000000000000000000000000000000000000600052604160045260246000fd5b6040519080825280602002602001820160405280156101ef5781602001602082028036833780820191505090505b509050858160008151811061022d577f4e487b7100000000000000000000000000000000000000000000000000000000600052603260045260246000fd5b602002602001019073ffffffffffffffffffffffffffffffffffffffff16908173ffffffffffffffffffffffffffffffffffffffff168152505084816001815181106102a2577f4e487b7100000000000000000000000000000000000000000000000000000000600052603260045260246000fd5b602002602001019073ffffffffffffffffffffffffffffffffffffffff16908173ffffffffffffffffffffffffffffffffffffffff16815250506000737a250d5630b4cf539739df2c5dacb4c659f2488d73ffffffffffffffffffffffffffffffffffffffff1663d06ca61f86846040518363ffffffff1660e01b815260040161032d9291906107a8565b60006040518083038186803b15801561034557600080fd5b505afa158015610359573d6000803e3d6000fd5b505050506040513d6000823e3d601f19601f82011682018060405250810190610382919061063b565b90506000737a250d5630b4cf539739df2c5dacb4c659f2488d73ffffffffffffffffffffffffffffffffffffffff166338ed1739836000815181106103f0577f4e487b7100000000000000000000000000000000000000000000000000000000600052603260045260246000fd5b60200260200101516103e86103de86600181518110610438577f4e487b7100000000000000000000000000000000000000000000000000000000600052603260045260246000fd5b602002602001015161044a91906108ed565b61045491906108bc565b8689896040518663ffffffff1660e01b81526004016104779594939291906107d8565b600060405180830381600087803b15801561049157600080fd5b505af11580156104a5573d6000803e3d6000fd5b505050506040513d6000823e3d601f19601f820116820180604052508101906104ce919061063b565b90505050505050505050565b60006104ed6104e884610857565b610832565b9050808382526020820190508285602086028201111561050c57600080fd5b60005b8581101561053c578161052288826105af565b84526020840193506020830192505060018101905061050f565b5050509392505050565b60008135905061055581610a5e565b92915050565b600082601f83011261056c57600080fd5b815161057c8482602086016104da565b91505092915050565b60008151905061059481610a75565b92915050565b6000813590506105a981610a8c565b92915050565b6000815190506105be81610a8c565b92915050565b600080600080600060a086880312156105dc57600080fd5b60006105ea88828901610546565b95505060206105fb88828901610546565b945050604061060c8882890161059a565b935050606061061d88828901610546565b925050608061062e8882890161059a565b9150509295509295909350565b60006020828403121561064d57600080fd5b600082015167ffffffffffffffff81111561066757600080fd5b6106738482850161055b565b91505092915050565b60006020828403121561068e57600080fd5b600061069c84828501610585565b91505092915050565b60006106b183836106bd565b60208301905092915050565b6106c681610947565b82525050565b6106d581610947565b82525050565b60006106e682610893565b6106f081856108ab565b93506106fb83610883565b8060005b8381101561072c57815161071388826106a5565b975061071e8361089e565b9250506001810190506106ff565b5085935050505092915050565b61074281610985565b82525050565b600060608201905061075d60008301866106cc565b61076a60208301856106cc565b6107776040830184610739565b949350505050565b600060408201905061079460008301856106cc565b6107a16020830184610739565b9392505050565b60006040820190506107bd6000830185610739565b81810360208301526107cf81846106db565b90509392505050565b600060a0820190506107ed6000830188610739565b6107fa6020830187610739565b818103604083015261080c81866106db565b905061081b60608301856106cc565b6108286080830184610739565b9695505050505050565b600061083c61084d565b9050610848828261098f565b919050565b6000604051905090565b600067ffffffffffffffff82111561087257610871610a1e565b5b602082029050602081019050919050565b6000819050602082019050919050565b600081519050919050565b6000602082019050919050565b600082825260208201905092915050565b60006108c782610985565b91506108d283610985565b9250826108e2576108e16109ef565b5b828204905092915050565b60006108f882610985565b915061090383610985565b9250817fffffffffffffffffffffffffffffffffffffffffffffffffffffffffffffffff048311821515161561093c5761093b6109c0565b5b828202905092915050565b600061095282610965565b9050919050565b60008115159050919050565b600073ffffffffffffffffffffffffffffffffffffffff82169050919050565b6000819050919050565b61099882610a4d565b810181811067ffffffffffffffff821117156109b7576109b6610a1e565b5b80604052505050565b7f4e487b7100000000000000000000000000000000000000000000000000000000600052601160045260246000fd5b7f4e487b7100000000000000000000000000000000000000000000000000000000600052601260045260246000fd5b7f4e487b7100000000000000000000000000000000000000000000000000000000600052604160045260246000fd5b6000601f19601f8301169050919050565b610a6781610947565b8114610a7257600080fd5b50565b610a7e81610959565b8114610a8957600080fd5b50565b610a9581610985565b8114610aa057600080fd5b5056fea26469706673582212202891d124460deb414f015c99b181e84d39f4f9e72ad47852239f5ac79828013964736f6c63430008010033",
  "linkReferences": {},
  "deployedLinkReferences": {}
}